:100000000C942A000C9469010C943C000C943C0064
:100010000C943C000C943C000C943C000C943C0070
:100020000C943C000C943C000C943C000C943C0060
:100030000C943C000C943C000C943C000C943C0050
:100040000C943C000C943C000C943C000C943C0040
:100050000C943C0011241FBECFE5D8E0DEBFCDBF1D
:1000600020E0A0E6B0E001C01D92A536B207E1F79E
:100070000E94F3010C94CC030C94000062E084E431
:100080000E9497010E949B0160E081E40E94A3010D
:1000900061E081E40E94A30162E081E40E94A30187
:1000A00060E082E40E94A30161E082E40E94A30177
:1000B00062E082E40E94A301089580916200909121
:1000C0006300009721F0019709F499C008950E94F8
:1000D000B20160E081E40E94A70162E082E40E9434
:1000E000A701109261001092600011C0809162001F
:1000F00090916300019789F00E94CB01809160008C
:1001000090916100019690936100809360008091CE
:1001100060009091610005974CF31092610010927D
:10012000600015C080916200909163000197A9F072
:1001300061E081E40E94AF010E94CB0180916000E8
:10014000909161000196909361008093600080918E
:1001500060009091610005972CF360E081E40E94BB
:10016000AB0162E082E40E94AB0161E081E40E94A5
:10017000AB0162E081E40E94A70160E082E40E949A
:10018000A701109261001092600011C0809162007E
:1001900090916300019789F00E94CB0180916000EB
:1001A000909161000196909361008093600080912E
:1001B00060009091610005974CF3109261001092DD
:1001C000600016C08091620090916300019709F46D
:1001D0007FC061E081E40E94AF010E94CB01809169
:1001E000600090916100019690936100809360009F
:1001F0008091600090916100059724F308950E941A
:10020000B20180916400882369F062E081E40E9479
:10021000A70160E082E40E94A70185E090E00E94CF
:10022000E00130C062E082E40E94A7011092610008
:100230001092600013C061E081E40E94AF0161E0B0
:1002400082E40E94AF010E94CB01809160009091F6
:10025000610001969093610080936000809160003E
:100260009091610005973CF30E94B20162E081E445
:100270000E94A70160E082E40E94A70185E090E06F
:100280000E94E00162E081E40E94AB0110926100F3
:100290001092600013C061E081E40E94AF0161E050
:1002A00082E40E94AF010E94CB0180916000909196
:1002B00061000196909361008093600080916000DE
:1002C0009091610005973CF31092630010926200D8
:1002D00008951F920F920FB60F9211242F933F9300
:1002E0004F935F936F937F938F939F93AF93BF933E
:1002F000EF93FF9344E650E062E081E40E941C0328
:1003000081E090E09093630080936200FF91EF9111
:10031000BF91AF919F918F917F916F915F914F911D
:100320003F912F910F900FBE0F901F90189540E0B6
:100330000E94F8010895789485B7836085BF8BB7D4
:1003400080648BBF089541E00E94F801089541E068
:100350000E948A02089540E00E948A0208950E9445
:100360008B03089560E081E40E94AB0161E081E4C9
:100370000E94AB0162E081E40E94AB0160E082E494
:100380000E94AB0161E082E40E94AB0162E082E482
:100390000E94AB01089513BE84E082BF83B78360DF
:1003A00083BF20E030E008C008B600FEFDCF88B76C
:1003B000816088BF2F5F3F4F2E333105A8F308952A
:1003C0000F931F93CF93DF938C01C0E0D0E003C065
:1003D0000E94CB012196C017D107D4F3DF91CF91B2
:1003E0001F910F9108950E943E000E945D00FDCF75
:1003F000683008F083C0823449F118F4813441F048
:100400007FC0833409F440C0843409F45AC078C0F2
:1004100041110DC02AB381E090E002C0880F991FFE
:100420006A95E2F7809582238ABB80E00895413087
:1004300009F068C02AB381E090E002C0880F991FDC
:100440006A95E2F7822B8ABB80E0089541110DC0C6
:1004500027B381E090E002C0880F991F6A95E2F708
:100460008095822387BB80E00895413009F04CC01D
:1004700027B381E090E002C0880F991F6A95E2F7E8
:10048000822B87BB80E0089541110DC024B381E029
:1004900090E002C0880F991F6A95E2F78095822349
:1004A00084BB80E00895413089F524B381E090E079
:1004B00002C0880F991F6A95E2F7822B84BB80E007
:1004C000089541110DC021B381E090E002C0880F72
:1004D000991F6A95E2F78095822381BB80E0089599
:1004E0004130B1F421B381E090E002C0880F991F40
:1004F0006A95E2F7822B81BB80E0089583E008953E
:1005000082E0089581E0089581E0089581E00895F2
:1005100081E00895683008F083C0823449F118F40E
:10052000813441F07FC0833409F440C0843409F43D
:100530005AC078C041110DC02BB381E090E002C0D9
:10054000880F991F6A95E2F7809582238BBB80E024
:100550000895413009F068C02BB381E090E002C0FB
:10056000880F991F6A95E2F7822B8BBB80E0089574
:1005700041110DC028B381E090E002C0880F991F9F
:100580006A95E2F78095822388BB80E00895413028
:1005900009F04CC028B381E090E002C0880F991F99
:1005A0006A95E2F7822B88BB80E0089541110DC067
:1005B00025B381E090E002C0880F991F6A95E2F7A9
:1005C0008095822385BB80E00895413089F525B36D
:1005D00081E090E002C0880F991F6A95E2F7822BB4
:1005E00085BB80E0089541110DC022B381E090E009
:1005F00002C0880F991F6A95E2F78095822382BB1B
:1006000080E008954130B1F422B381E090E002C06F
:10061000880F991F6A95E2F7822B82BB80E00895CC
:1006200083E0089582E0089581E0089581E00895CF
:1006300081E0089581E00895683008F068C0823450
:1006400009F118F4813439F064C0833491F18434B1
:1006500009F446C05EC079B381E090E09C01062EAB
:1006600002C0220F331F0A94E2F7872F90E0822303
:10067000932302C0959587956A95E2F7FA018083E6
:1006800080E0089576B381E090E09C01062E02C0E0
:10069000220F331F0A94E2F7872F90E082239323DF
:1006A00002C0959587956A95E2F7FA01808380E00C
:1006B000089573B381E090E09C01062E02C0220FE2
:1006C000331F0A94E2F7872F90E08223932302C01E
:1006D000959587956A95E2F7FA01808380E0089501
:1006E00070B381E090E09C01062E02C0220F331F00
:1006F0000A94E2F7872F90E08223932302C0959516
:1007000087956A95E2F7FA01808380E0089583E097
:10071000089582E008956830D8F58234A9F018F47D
:10072000813431F037C08334D9F0843429F132C0B8
:100730002BB381E090E002C0880F991F6A95E2F721
:1007400082278BBB80E0089528B381E090E002C04F
:10075000880F991F6A95E2F7822788BB80E0089589
:1007600025B381E090E002C0880F991F6A95E2F7F7
:10077000822785BB80E0089522B381E090E002C02B
:10078000880F991F6A95E2F7822782BB80E008955F
:0C07900083E0089582E00895F894FFCF04
:00000001FF
